:02000000112DC0
:100006000F3083120313FC004730FD00FD0B092857
:0A001600FC0B0928000000000800A0
:06002000000000000800D2
:0E002600213083120313FD00FD0B1728080084
:100034007B15FB1F24280130F300F201F101F001CC
:08004400FA0DF20CFF30080078
:08004C00FA1FF2130030080056
:10005400FB14FB1F3428FF30F300F200F100F00022
:08006400FA0DF20CFF30080058
:0E006C00F201F101F001F801F301003008008B
:10007A0083120313EB1B43288813442888176B1B2E
:10008A004828081349280817EB1A4D2888124E28C1
:10009A0088166B1A5228081253280816521857281D
:1000AA00081558280811881510208811EB195F289F
:1000BA008813602888176B1964280813652808179D
:1000CA00EB18692888126A2888166B186E28081295
:1000DA006F280816521873280815742808118815ED
:1000EA0010208811521C7B2803207C28132008002A
:1000FA0083120313F801F9011030FC00710DF80D99
:10010A00F90D7408F8027508031C750FF902031833
:10011A0095287408F80775080318750FF90703106E
:0A012A00F00DF10DFC0B8328080016
:10013400A0017208031DAF287108F2007008F100D5
:10014400F001A0157208031DAF287108F200F10137
:10015400A011201672080319BD282008F302031DFC
:10016400031CC1280310F21BC528F00DF10DF20D7C
:10017400F30BB528C1280130FC003620C828023012
:0E018400FC001A20C8280430FC0026200800C9
:100192007C18FF28FC18D0287C191E29C928A00128
:1001A2007208031DF0287108F2007008F100780847
:1001B200F000F801A0157208031DF0287108F20082
:1001C2007008F100F001A01120167208031DF0283A
:1001D2007108F200F101A015720803191229200812
:1001E200F302031D031C16290310F21BFF28F80D4E
:1001F200F00DF10DF20DF30BF62816297B1B701C86
:100202001A29F81F1A29F00A0319F10A0319F20A26
:10021200031D1A29F20CF10CF00CF30A03191E2922
:100222001A290130FC00362021290230FC001A2054
:1002320021290430FC00262021290830FC002A2034
:0402420000000800B0
:1002460083120313E901053069020318312969088D
:100256006807840020308000E90A262969086807B3
:1002660084008001E90369086807EA000A30F4009F
:10027600F5016608F0006708F1007D207808F000B7
:100286007908F1003030F0076A08840070088000B1
:100296000A30F400F5016608F0006708F1007D20D9
:1002A6007008E6007108E70000307106031D5D293D
:1002B60000307006031D60296229E903362908000B
:1002C6008312031352106608EB003D2052140800F7
:1002D6008312031372087606A000F801F901730869
:1002E6007702031C8E297708FD007308F7007D0846
:1002F600F3007608FD007208F6007D08F200750826
:10030600FD007108F5007D08F1007408FD00700815
:10031600F4007D08F00077080319072A7208FA002E
:10032600F217F61777087302F7000319C129083088
:100336007702031CB729F7007408F9007508F40062
:100346007608F500F60108307702031CB729F70096
:100356007408F9007508F400F50108307702031CEB
:10036600B7297A08F200072A77080319C12903106A
:10037600F60CF50CF40CF90CF70BBA29A01FCE29D4
:10038600F909F409F509F609F90A0319F40A031932
:10039600F50A0319F60A7908F80774080318740FA2
:1003A600F00775080318750FF10776080318760F1E
:1003B600F207A01BE729031CF729F20CF10CF00C3D
:1003C600F80CF30FF729032A0318FB29F809F0099B
:1003D600F109F209F80A0319F00A0319F10A0319D7
:1003E600F20A8030FA06FF290130FC00C920092AEA
:1003F6000230FC00C920092A0430FC009A20092A90
:100406000830FC002A20092A0030FC000000080001
:100416007B14FB1F162AF201FA1FFF30F200F100CF
:0A042600F000FA0DF20CFF300800A0
:100430000E3083120313FD00FD0B1C2A0000080080
:06044000FB15FF3008006F
:10044600352A803083120313DD00482AC030DD00D0
:10045600482A9430DD00482AD430DD00482A80300E
:10046600DD00482A831203135D08013A0319242A82
:100476005D08023A0319292A5D08033A03192C2A52
:100486005D08043A03192F2A322A5E03F0005D083C
:10049600F0077008DD007008EB003D205210E00107
:1004A60060085F07840000080319612A60085F0777
:1004B60084000008E6006321E00A532A521408006B
:1004C60083120313DE01DF015D08F2005D08F3000D
:1004D600720884000008203A031D762A5E085F042D
:1004E600031D762A832A0130DE000030DF00720801
:1004F60084000008F0007308840070088000F30A86
:100506007208F100F20A710884000008003A031D1F
:080516006B2A5D08F0000800EB
:10051E0083120313FB0173080319CC2A7208FA0025
:10052E00F2178E30F302F31FCF2AF309F30A0830C5
:10053E007302031CB22AF300F10D7208F100F201EE
:10054E0008307302031CB22AF300F10DF101730897
:10055E00031D0310BA2A73080319BA2A0310F20CEA
:10056E00F10CF30BB52A7B1B711CC42A031CC42A85
:10057E00F10A0319F20AF21BDB2AFA1FDE2AF2092C
:10058E00F109F10A0319F20ADE2AF201F101DE2A5B
:10059E007B14FB1FE12AF201FA1FE12AFF30F20061
:1005AE00F100FA0DF20CE12A0130FC00E32A0030D2
:1005BE00FC00E32AFF30FC00FC080319E72A0B229B
:0A05CE007108F0007208F100080047
:0C05D800831203138030F6066B2108002C
:1005E400831203137408003A031D0D2B7508003A97
:1005F400031D0D2B7608003A031D0D2B7708003AD6
:10060400031D0D2BFF30F000FF30F1007F30F200AE
:10061400FF30F300A82B83120313770803199C2BD4
:10062400730803199F2B720876068039FA00F217B3
:10063400F617A0017208F8007108FC007008FD00AC
:100644007408FD027508031C750FFC027608031C70
:10065400760FF802F801FC01FD01031C382B03108E
:10066400F20CF10CF00CF80C0130A0007708F30246
:10067400031C422B7E302007F3070318A22B472BC1
:100684007E302007F307031CA52B1830FA07FD0D55
:10069400FC0DF80DF00DF10DF20DA00D7408F00233
:1006A4007508031C750FF1027608031C760FF2021D
:1006B400760DA004201C602B7D146B2B7408F007AE
:1006C40075080318750FF10776080318760AF20700
:1006D4007D10FA031F307A05031D492B7B1B7D1CFB
:1006E400922B0310F00DF10DF20DA00D7408F00221
:1006F4007508031C750FF1027608031C760FF202CD
:10070400760D20040139FD070318FC0A0319F80AC1
:10071400031D922BF80CFC0CFD0CF30A0319A22BFD
:10072400FA1FF8137808F2007C08F1007D08F00045
:100734000030A72B01302022A72B02303620A72B14
:0E07440004302A20A72B08301A2000000800DD
:1007520083120313E201E3015D08E4005E08E50091
:1007620080305E06F00080307002031DBA2B00302C
:100772005D020318C82B0130E2000030E3005D087F
:10078200003CE4005E08031C013EE501E50264084A
:10079200E6006508E7005F08E80023210630E00074
:1007A2000030E1006108003C031DD92B6008003CC9
:1007B2000318F42B60085F07F20001306002F000BA
:1007C2000030031C013E6102F10070085F078400E3
:1007D2000008F00072088400700880000130E00216
:1007E200031CE103D32B5F088400203080006208E1
:1007F20063040319122CE001E10160085F07840021
:100802000008203A031D092CE00A0319E10AFE2B15
:100812000130E002031CE10360085F0784002D3011
:04082200800008004A
:10082600831203137008F8007108F000F101F20159
:10083600F301FB01FC019630F300FA017008F100A8
:0C0846007808F000F801F2019A20080088
:10085200831203139F01C0309F0483161F179F1733
:1008620083125D08F000F00D7010F00D7010F00DA5
:10087200701070089F041F1418221F151F1D432C8F
:1008820000003F2C1F101E08F100F00183161E0805
:08089200F0040030F10408003D
:0E089A008312031351088A00500882000800E0
:1008A80083120313DD01292413240A30F400D730FE
:1008B800F5002330F6008230F700F2227008F400C9
:1008C8007108F5007208F6007308F7000030F000B0
:1008D8000030F1004830F2008530F300EC228F221E
:1008E8007008CE007108CF007008DD007108DE00C6
:1008F8005630DF00A9230230DD000130DE002E3043
:10090800DF0023225630DD0063227008DF0002304A
:10091800DD000930DE0023222530E6006321203087
:10092800E600632180304F06F00080307002031D1E
:100938009F2C41304E02031CA32C8610A42C861435
:020948000800A5
:10094A0083160313881108110812881208138813D2
:10095A0083128811081188130813881208120320B9
:10096A0003200320881608168815102088110320F2
:10097A00881510208811032088151020881103205B
:10098A000812881510208811032088151020881154
:10099A0088128817881510208811032088130816D2
:1009AA008815102088110812881510208811032034
:1009BA008815102088110816881510208811032020
:1009CA000812881510208811881708178816081623
:0C09DA008815102088110320521408001A
:1009E6004D248A110A128000840AD00A0319D10AFA
:0809F600F003031DF32C0800BF
:1009FE00FF3083120313D300FF30D400FF30D50035
:100A0E00FF309F01C0309F0483161F179F1783125C
:040A1E001F14080099
:100A22007A2583160313860183128601FF24A524E7
:100A32000130EB003D200C30EB003D200130DD00A9
:100A42000130DE003730DF0023220230DD000130CA
:100A5200DE004130DF0023221A30FB005E30FC0052
:100A62006E30FD00FD0B332DFC0B332DFB0B332DB4
:100A720000000130EB003D200130DD000130DE00DE
:0C0A82002130DF0023225424442D462D97
:100AF400213084002D3083120313F0004C30D000D9
:080B04000530D100F3240800C4
:100A98004C3449344734483454342034533445347E
:0A0AA8004E3453344F3452340034FE
:100AB2004C34693467346834743420343D3420341F
:020AC2000034FE
:100AC4004134553454344F344D344134543449341E
:040AD4004334003473
:100AD8004C3449344734483454342034533459342A
:0A0AE8005334543445344D340034C7
:02400E004A2F37
:00000001FF
